{
	"CryptoZombies01-ZombieFctory/10-math-keccak256-typecasting.sol": {
		"ZombieFactory": {
			"abi": [
				{
					"constant": true,
					"inputs": [],
					"name": "myHash",
					"outputs": [
						{
							"internalType": "bytes32",
							"name": "",
							"type": "bytes32"
						}
					],
					"payable": false,
					"stateMutability": "view",
					"type": "function"
				}
			],
			"devdoc": {
				"methods": {}
			},
			"evm": {
				"assembly": "    /* \"CryptoZombies01-ZombieFctory/10-math-keccak256-typecasting.sol\":33:445  contract ZombieFactory {... */\n  mstore(0x40, 0x80)\n    /* \"CryptoZombies01-ZombieFctory/10-math-keccak256-typecasting.sol\":174:176  16 */\n  0x10\n    /* \"CryptoZombies01-ZombieFctory/10-math-keccak256-typecasting.sol\":157:176  uint dnaDigits = 16 */\n  0x00\n  sstore\n    /* \"CryptoZombies01-ZombieFctory/10-math-keccak256-typecasting.sol\":206:215  dnaDigits */\n  sload(0x00)\n    /* \"CryptoZombies01-ZombieFctory/10-math-keccak256-typecasting.sol\":200:202  10 */\n  0x0a\n    /* \"CryptoZombies01-ZombieFctory/10-math-keccak256-typecasting.sol\":200:215  10 ** dnaDigits */\n  exp\n    /* \"CryptoZombies01-ZombieFctory/10-math-keccak256-typecasting.sol\":182:215  uint dnaModulus = 10 ** dnaDigits */\n  0x01\n  sstore\n    /* \"CryptoZombies01-ZombieFctory/10-math-keccak256-typecasting.sol\":426:442  keccak256(\"cat\") */\n  mload(0x40)\n  dup1\n  dup1\n  0x6361740000000000000000000000000000000000000000000000000000000000\n  dup2\n  mstore\n  pop\n  0x03\n  add\n  swap1\n  pop\n  mload(0x40)\n  dup1\n  swap2\n  sub\n  swap1\n  keccak256\n    /* \"CryptoZombies01-ZombieFctory/10-math-keccak256-typecasting.sol\":402:442  bytes32 public myHash = keccak256(\"cat\") */\n  0x02\n  sstore\n    /* \"CryptoZombies01-ZombieFctory/10-math-keccak256-typecasting.sol\":33:445  contract ZombieFactory {... */\n  callvalue\n    /* \"--CODEGEN--\":8:17   */\n  dup1\n    /* \"--CODEGEN--\":5:7   */\n  iszero\n  tag_1\n  jumpi\n    /* \"--CODEGEN--\":30:31   */\n  0x00\n    /* \"--CODEGEN--\":27:28   */\n  dup1\n    /* \"--CODEGEN--\":20:32   */\n  revert\n    /* \"--CODEGEN--\":5:7   */\ntag_1:\n    /* \"CryptoZombies01-ZombieFctory/10-math-keccak256-typecasting.sol\":33:445  contract ZombieFactory {... */\n  pop\n  dataSize(sub_0)\n  dup1\n  dataOffset(sub_0)\n  0x00\n  codecopy\n  0x00\n  return\nstop\n\nsub_0: assembly {\n        /* \"CryptoZombies01-ZombieFctory/10-math-keccak256-typecasting.sol\":33:445  contract ZombieFactory {... */\n      mstore(0x40, 0x80)\n      callvalue\n        /* \"--CODEGEN--\":8:17   */\n      dup1\n        /* \"--CODEGEN--\":5:7   */\n      iszero\n      tag_1\n      jumpi\n        /* \"--CODEGEN--\":30:31   */\n      0x00\n        /* \"--CODEGEN--\":27:28   */\n      dup1\n        /* \"--CODEGEN--\":20:32   */\n      revert\n        /* \"--CODEGEN--\":5:7   */\n    tag_1:\n        /* \"CryptoZombies01-ZombieFctory/10-math-keccak256-typecasting.sol\":33:445  contract ZombieFactory {... */\n      pop\n      jumpi(tag_2, lt(calldatasize, 0x04))\n      shr(0xe0, calldataload(0x00))\n      dup1\n      0xb6f61649\n      eq\n      tag_3\n      jumpi\n    tag_2:\n      0x00\n      dup1\n      revert\n        /* \"CryptoZombies01-ZombieFctory/10-math-keccak256-typecasting.sol\":402:442  bytes32 public myHash = keccak256(\"cat\") */\n    tag_3:\n      tag_4\n      tag_5\n      jump\t// in\n    tag_4:\n      mload(0x40)\n      dup1\n      dup3\n      dup2\n      mstore\n      0x20\n      add\n      swap2\n      pop\n      pop\n      mload(0x40)\n      dup1\n      swap2\n      sub\n      swap1\n      return\n    tag_5:\n      sload(0x02)\n      dup2\n      jump\t// out\n\n    auxdata: 0xa265627a7a723158202030c2cfeec9c5025a37ee67d787ab45b5b0317023d151c8ef80b43ce0b93a7364736f6c63430005110032\n}\n",
				"bytecode": {
					"linkReferences": {},
					"object": "60806040526010600055600054600a0a60015560405180807f636174000000000000000000000000000000000000000000000000000000000081525060030190506040518091039020600255348015605657600080fd5b506084806100656000396000f3fe6080604052348015600f57600080fd5b506004361060285760003560e01c8063b6f6164914602d575b600080fd5b60336049565b6040518082815260200191505060405180910390f35b6002548156fea265627a7a723158202030c2cfeec9c5025a37ee67d787ab45b5b0317023d151c8ef80b43ce0b93a7364736f6c63430005110032",
					"opcodes": "PUSH1 0x80 PUSH1 0x40 MSTORE PUSH1 0x10 PUSH1 0x0 SSTORE PUSH1 0x0 SLOAD PUSH1 0xA EXP PUSH1 0x1 SSTORE PUSH1 0x40 MLOAD DUP1 DUP1 PUSH32 0x6361740000000000000000000000000000000000000000000000000000000000 DUP2 MSTORE POP PUSH1 0x3 ADD SWAP1 POP PUSH1 0x40 MLOAD DUP1 SWAP2 SUB SWAP1 KECCAK256 PUSH1 0x2 SSTORE CALLVALUE DUP1 ISZERO PUSH1 0x56 JUMPI PUSH1 0x0 DUP1 REVERT JUMPDEST POP PUSH1 0x84 DUP1 PUSH2 0x65 PUSH1 0x0 CODECOPY PUSH1 0x0 RETURN INVALID PUSH1 0x80 PUSH1 0x40 MSTORE CALLVALUE DUP1 ISZERO PUSH1 0xF JUMPI PUSH1 0x0 DUP1 REVERT JUMPDEST POP PUSH1 0x4 CALLDATASIZE LT PUSH1 0x28 JUMPI PUSH1 0x0 CALLDATALOAD PUSH1 0xE0 SHR DUP1 PUSH4 0xB6F61649 EQ PUSH1 0x2D JUMPI JUMPDEST PUSH1 0x0 DUP1 REVERT JUMPDEST PUSH1 0x33 PUSH1 0x49 JUMP JUMPDEST PUSH1 0x40 MLOAD DUP1 DUP3 DUP2 MSTORE PUSH1 0x20 ADD SWAP2 POP POP PUSH1 0x40 MLOAD DUP1 SWAP2 SUB SWAP1 RETURN JUMPDEST PUSH1 0x2 SLOAD DUP2 JUMP INVALID LOG2 PUSH6 0x627A7A723158 KECCAK256 KECCAK256 ADDRESS 0xC2 0xCF 0xEE 0xC9 0xC5 MUL GAS CALLDATACOPY 0xEE PUSH8 0xD787AB45B5B03170 0x23 0xD1 MLOAD 0xC8 0xEF DUP1 0xB4 EXTCODECOPY 0xE0 0xB9 GASPRICE PUSH20 0x64736F6C63430005110032000000000000000000 "
				},
				"gasEstimates": {
					"creation": {
						"codeDepositCost": "26400",
						"executionCost": "61047",
						"totalCost": "87447"
					},
					"external": {
						"myHash()": "983"
					}
				},
				"methodIdentifiers": {
					"myHash()": "b6f61649"
				}
			},
			"userdoc": {
				"methods": {}
			}
		}
	}
}