{
	"CryptoZombies01-ZombieFctory/10-math-keccak256-typecasting.sol": {
		"ZombieFactory": {
			"abi": [
				{
					"constant": true,
					"inputs": [],
					"name": "myHash",
					"outputs": [
						{
							"internalType": "bytes32",
							"name": "",
							"type": "bytes32"
						}
					],
					"payable": false,
					"stateMutability": "view",
					"type": "function"
				},
				{
					"constant": true,
					"inputs": [],
					"name": "myHash2",
					"outputs": [
						{
							"internalType": "bytes32",
							"name": "",
							"type": "bytes32"
						}
					],
					"payable": false,
					"stateMutability": "view",
					"type": "function"
				}
			],
			"devdoc": {
				"methods": {}
			},
			"evm": {
				"assembly": "    /* \"CryptoZombies01-ZombieFctory/10-math-keccak256-typecasting.sol\":33:607  contract ZombieFactory {... */\n  mstore(0x40, 0x80)\n    /* \"CryptoZombies01-ZombieFctory/10-math-keccak256-typecasting.sol\":174:176  16 */\n  0x10\n    /* \"CryptoZombies01-ZombieFctory/10-math-keccak256-typecasting.sol\":157:176  uint dnaDigits = 16 */\n  0x00\n  sstore\n    /* \"CryptoZombies01-ZombieFctory/10-math-keccak256-typecasting.sol\":206:215  dnaDigits */\n  sload(0x00)\n    /* \"CryptoZombies01-ZombieFctory/10-math-keccak256-typecasting.sol\":200:202  10 */\n  0x0a\n    /* \"CryptoZombies01-ZombieFctory/10-math-keccak256-typecasting.sol\":200:215  10 ** dnaDigits */\n  exp\n    /* \"CryptoZombies01-ZombieFctory/10-math-keccak256-typecasting.sol\":182:215  uint dnaModulus = 10 ** dnaDigits */\n  0x01\n  sstore\n    /* \"CryptoZombies01-ZombieFctory/10-math-keccak256-typecasting.sol\":426:442  keccak256(\"cat\") */\n  mload(0x40)\n  dup1\n  dup1\n  0x6361740000000000000000000000000000000000000000000000000000000000\n  dup2\n  mstore\n  pop\n  0x03\n  add\n  swap1\n  pop\n  mload(0x40)\n  dup1\n  swap2\n  sub\n  swap1\n  keccak256\n    /* \"CryptoZombies01-ZombieFctory/10-math-keccak256-typecasting.sol\":402:442  bytes32 public myHash = keccak256(\"cat\") */\n  0x02\n  sstore\n    /* \"CryptoZombies01-ZombieFctory/10-math-keccak256-typecasting.sol\":563:603  abi.encodePacked(\"abcs\", \"asidajs43BBI\") */\n  add(0x20, mload(0x40))\n  dup1\n  dup1\n  0x6162637300000000000000000000000000000000000000000000000000000000\n  dup2\n  mstore\n  pop\n  0x04\n  add\n  dup1\n  0x61736964616a7334334242490000000000000000000000000000000000000000\n  dup2\n  mstore\n  pop\n  0x0c\n  add\n  swap1\n  pop\n  mload(0x40)\n    /* \"--CODEGEN--\":49:53   */\n  0x20\n    /* \"--CODEGEN--\":39:46   */\n  dup2\n    /* \"--CODEGEN--\":30:37   */\n  dup4\n    /* \"--CODEGEN--\":26:47   */\n  sub\n    /* \"--CODEGEN--\":22:54   */\n  sub\n    /* \"--CODEGEN--\":13:20   */\n  dup2\n    /* \"--CODEGEN--\":6:55   */\n  mstore\n    /* \"CryptoZombies01-ZombieFctory/10-math-keccak256-typecasting.sol\":563:603  abi.encodePacked(\"abcs\", \"asidajs43BBI\") */\n  swap1\n  0x40\n  mstore\n    /* \"CryptoZombies01-ZombieFctory/10-math-keccak256-typecasting.sol\":553:604  keccak256(abi.encodePacked(\"abcs\", \"asidajs43BBI\")) */\n  dup1\n  mload\n  swap1\n  0x20\n  add\n  keccak256\n    /* \"CryptoZombies01-ZombieFctory/10-math-keccak256-typecasting.sol\":528:604  bytes32 public myHash2 = keccak256(abi.encodePacked(\"abcs\", \"asidajs43BBI\")) */\n  0x03\n  sstore\n    /* \"CryptoZombies01-ZombieFctory/10-math-keccak256-typecasting.sol\":33:607  contract ZombieFactory {... */\n  callvalue\n    /* \"--CODEGEN--\":8:17   */\n  dup1\n    /* \"--CODEGEN--\":5:7   */\n  iszero\n  tag_1\n  jumpi\n    /* \"--CODEGEN--\":30:31   */\n  0x00\n    /* \"--CODEGEN--\":27:28   */\n  dup1\n    /* \"--CODEGEN--\":20:32   */\n  revert\n    /* \"--CODEGEN--\":5:7   */\ntag_1:\n    /* \"CryptoZombies01-ZombieFctory/10-math-keccak256-typecasting.sol\":33:607  contract ZombieFactory {... */\n  pop\n  dataSize(sub_0)\n  dup1\n  dataOffset(sub_0)\n  0x00\n  codecopy\n  0x00\n  return\nstop\n\nsub_0: assembly {\n        /* \"CryptoZombies01-ZombieFctory/10-math-keccak256-typecasting.sol\":33:607  contract ZombieFactory {... */\n      mstore(0x40, 0x80)\n      callvalue\n        /* \"--CODEGEN--\":8:17   */\n      dup1\n        /* \"--CODEGEN--\":5:7   */\n      iszero\n      tag_1\n      jumpi\n        /* \"--CODEGEN--\":30:31   */\n      0x00\n        /* \"--CODEGEN--\":27:28   */\n      dup1\n        /* \"--CODEGEN--\":20:32   */\n      revert\n        /* \"--CODEGEN--\":5:7   */\n    tag_1:\n        /* \"CryptoZombies01-ZombieFctory/10-math-keccak256-typecasting.sol\":33:607  contract ZombieFactory {... */\n      pop\n      jumpi(tag_2, lt(calldatasize, 0x04))\n      shr(0xe0, calldataload(0x00))\n      dup1\n      0xb6f61649\n      eq\n      tag_3\n      jumpi\n      dup1\n      0xba7764c5\n      eq\n      tag_4\n      jumpi\n    tag_2:\n      0x00\n      dup1\n      revert\n        /* \"CryptoZombies01-ZombieFctory/10-math-keccak256-typecasting.sol\":402:442  bytes32 public myHash = keccak256(\"cat\") */\n    tag_3:\n      tag_5\n      tag_6\n      jump\t// in\n    tag_5:\n      mload(0x40)\n      dup1\n      dup3\n      dup2\n      mstore\n      0x20\n      add\n      swap2\n      pop\n      pop\n      mload(0x40)\n      dup1\n      swap2\n      sub\n      swap1\n      return\n        /* \"CryptoZombies01-ZombieFctory/10-math-keccak256-typecasting.sol\":528:604  bytes32 public myHash2 = keccak256(abi.encodePacked(\"abcs\", \"asidajs43BBI\")) */\n    tag_4:\n      tag_7\n      tag_8\n      jump\t// in\n    tag_7:\n      mload(0x40)\n      dup1\n      dup3\n      dup2\n      mstore\n      0x20\n      add\n      swap2\n      pop\n      pop\n      mload(0x40)\n      dup1\n      swap2\n      sub\n      swap1\n      return\n        /* \"CryptoZombies01-ZombieFctory/10-math-keccak256-typecasting.sol\":402:442  bytes32 public myHash = keccak256(\"cat\") */\n    tag_6:\n      sload(0x02)\n      dup2\n      jump\t// out\n        /* \"CryptoZombies01-ZombieFctory/10-math-keccak256-typecasting.sol\":528:604  bytes32 public myHash2 = keccak256(abi.encodePacked(\"abcs\", \"asidajs43BBI\")) */\n    tag_8:\n      sload(0x03)\n      dup2\n      jump\t// out\n\n    auxdata: 0xa265627a7a72315820026df4fe46d986c50e86772d7b85192fc9e1b3ba4244ce8d1d2a8a0fea5d442364736f6c63430005110032\n}\n",
				"bytecode": {
					"linkReferences": {},
					"object": "60806040526010600055600054600a0a60015560405180807f63617400000000000000000000000000000000000000000000000000000000008152506003019050604051809103902060025560405160200180807f6162637300000000000000000000000000000000000000000000000000000000815250600401807f61736964616a7334334242490000000000000000000000000000000000000000815250600c019050604051602081830303815290604052805190602001206003553480156100c957600080fd5b5060b0806100d86000396000f3fe6080604052348015600f57600080fd5b506004361060325760003560e01c8063b6f61649146037578063ba7764c5146053575b600080fd5b603d606f565b6040518082815260200191505060405180910390f35b60596075565b6040518082815260200191505060405180910390f35b60025481565b6003548156fea265627a7a72315820026df4fe46d986c50e86772d7b85192fc9e1b3ba4244ce8d1d2a8a0fea5d442364736f6c63430005110032",
					"opcodes": "PUSH1 0x80 PUSH1 0x40 MSTORE PUSH1 0x10 PUSH1 0x0 SSTORE PUSH1 0x0 SLOAD PUSH1 0xA EXP PUSH1 0x1 SSTORE PUSH1 0x40 MLOAD DUP1 DUP1 PUSH32 0x6361740000000000000000000000000000000000000000000000000000000000 DUP2 MSTORE POP PUSH1 0x3 ADD SWAP1 POP PUSH1 0x40 MLOAD DUP1 SWAP2 SUB SWAP1 KECCAK256 PUSH1 0x2 SSTORE PUSH1 0x40 MLOAD PUSH1 0x20 ADD DUP1 DUP1 PUSH32 0x6162637300000000000000000000000000000000000000000000000000000000 DUP2 MSTORE POP PUSH1 0x4 ADD DUP1 PUSH32 0x61736964616A7334334242490000000000000000000000000000000000000000 DUP2 MSTORE POP PUSH1 0xC ADD SWAP1 POP PUSH1 0x40 MLOAD PUSH1 0x20 DUP2 DUP4 SUB SUB DUP2 MSTORE SWAP1 PUSH1 0x40 MSTORE DUP1 MLOAD SWAP1 PUSH1 0x20 ADD KECCAK256 PUSH1 0x3 SSTORE CALLVALUE DUP1 ISZERO PUSH2 0xC9 JUMPI PUSH1 0x0 DUP1 REVERT JUMPDEST POP PUSH1 0xB0 DUP1 PUSH2 0xD8 PUSH1 0x0 CODECOPY PUSH1 0x0 RETURN INVALID PUSH1 0x80 PUSH1 0x40 MSTORE CALLVALUE DUP1 ISZERO PUSH1 0xF JUMPI PUSH1 0x0 DUP1 REVERT JUMPDEST POP PUSH1 0x4 CALLDATASIZE LT PUSH1 0x32 JUMPI PUSH1 0x0 CALLDATALOAD PUSH1 0xE0 SHR DUP1 PUSH4 0xB6F61649 EQ PUSH1 0x37 JUMPI DUP1 PUSH4 0xBA7764C5 EQ PUSH1 0x53 JUMPI JUMPDEST PUSH1 0x0 DUP1 REVERT JUMPDEST PUSH1 0x3D PUSH1 0x6F JUMP JUMPDEST PUSH1 0x40 MLOAD DUP1 DUP3 DUP2 MSTORE PUSH1 0x20 ADD SWAP2 POP POP PUSH1 0x40 MLOAD DUP1 SWAP2 SUB SWAP1 RETURN JUMPDEST PUSH1 0x59 PUSH1 0x75 JUMP JUMPDEST PUSH1 0x40 MLOAD DUP1 DUP3 DUP2 MSTORE PUSH1 0x20 ADD SWAP2 POP POP PUSH1 0x40 MLOAD DUP1 SWAP2 SUB SWAP1 RETURN JUMPDEST PUSH1 0x2 SLOAD DUP2 JUMP JUMPDEST PUSH1 0x3 SLOAD DUP2 JUMP INVALID LOG2 PUSH6 0x627A7A723158 KECCAK256 MUL PUSH14 0xF4FE46D986C50E86772D7B85192F 0xC9 0xE1 0xB3 0xBA TIMESTAMP DIFFICULTY 0xCE DUP14 SAR 0x2A DUP11 0xF 0xEA 0x5D DIFFICULTY 0x23 PUSH5 0x736F6C6343 STOP SDIV GT STOP ORIGIN "
				},
				"gasEstimates": {
					"creation": {
						"codeDepositCost": "35200",
						"executionCost": "81206",
						"totalCost": "116406"
					},
					"external": {
						"myHash()": "983",
						"myHash2()": "1005"
					}
				},
				"methodIdentifiers": {
					"myHash()": "b6f61649",
					"myHash2()": "ba7764c5"
				}
			},
			"userdoc": {
				"methods": {}
			}
		}
	}
}