{
	"Remix01-SimpleStorage/10-basics-variables-functions.sol": {
		"SimpleStorage": {
			"abi": [
				{
					"inputs": [
						{
							"internalType": "uint256",
							"name": "a",
							"type": "uint256"
						},
						{
							"internalType": "uint256",
							"name": "b",
							"type": "uint256"
						}
					],
					"name": "addNum",
					"outputs": [
						{
							"internalType": "uint256",
							"name": "",
							"type": "uint256"
						}
					],
					"stateMutability": "pure",
					"type": "function"
				},
				{
					"inputs": [],
					"name": "favUnsignedNum",
					"outputs": [
						{
							"internalType": "uint256",
							"name": "",
							"type": "uint256"
						}
					],
					"stateMutability": "view",
					"type": "function"
				},
				{
					"inputs": [],
					"name": "retrieve",
					"outputs": [
						{
							"internalType": "uint256",
							"name": "",
							"type": "uint256"
						}
					],
					"stateMutability": "view",
					"type": "function"
				},
				{
					"inputs": [
						{
							"internalType": "uint256",
							"name": "_favNum",
							"type": "uint256"
						}
					],
					"name": "store",
					"outputs": [],
					"stateMutability": "nonpayable",
					"type": "function"
				}
			],
			"devdoc": {
				"kind": "dev",
				"methods": {},
				"version": 1
			},
			"evm": {
				"assembly": "    /* \"Remix01-SimpleStorage/10-basics-variables-functions.sol\":324:3432  contract SimpleStorage {... */\n  mstore(0x40, 0x80)\n    /* \"Remix01-SimpleStorage/10-basics-variables-functions.sol\":809:810  5 */\n  0x05\n    /* \"Remix01-SimpleStorage/10-basics-variables-functions.sol\":777:810  uint256 public favUnsignedNum = 5 */\n  0x00\n  sstore\n    /* \"Remix01-SimpleStorage/10-basics-variables-functions.sol\":860:862  -5 */\n  0xfffffffffffffffffffffffffffffffffffffffffffffffffffffffffffffffb\n    /* \"Remix01-SimpleStorage/10-basics-variables-functions.sol\":838:862  int256 favSignedNum = -5 */\n  0x01\n  sstore\n    /* \"Remix01-SimpleStorage/10-basics-variables-functions.sol\":884:888  true */\n  0x01\n    /* \"Remix01-SimpleStorage/10-basics-variables-functions.sol\":869:888  bool favBool = true */\n  0x02\n  exp(0x0100, 0x00)\n  dup2\n  sload\n  dup2\n  0xff\n  mul\n  not\n  and\n  swap1\n  dup4\n  iszero\n  iszero\n  mul\n  or\n  swap1\n  sstore\n  pop\n    /* \"Remix01-SimpleStorage/10-basics-variables-functions.sol\":963:986  string favString = 'Hi' */\n  mload(0x40)\n  dup1\n  0x40\n  add\n  0x40\n  mstore\n  dup1\n  0x02\n  dup2\n  mstore\n  0x20\n  add\n  0x4869000000000000000000000000000000000000000000000000000000000000\n  dup2\n  mstore\n  pop\n  0x03\n  swap1\n  dup1\n  mload\n  swap1\n  0x20\n  add\n  swap1\n  tag_1\n  swap3\n  swap2\n  swap1\n  tag_2\n  jump\t// in\ntag_1:\n  pop\n    /* \"Remix01-SimpleStorage/10-basics-variables-functions.sol\":1050:1092  0x87E7899Ce00c6316E2355BB59EaF1AD358DE95c3 */\n  0x87e7899ce00c6316e2355bb59eaf1ad358de95c3\n    /* \"Remix01-SimpleStorage/10-basics-variables-functions.sol\":1033:1092  address myAddr = 0x87E7899Ce00c6316E2355BB59EaF1AD358DE95c3 */\n  0x04\n  exp(0x0100, 0x00)\n  dup2\n  sload\n  dup2\n  0xffffffffffffffffffffffffffffffffffffffff\n  mul\n  not\n  and\n  swap1\n  dup4\n  0xffffffffffffffffffffffffffffffffffffffff\n  and\n  mul\n  or\n  swap1\n  sstore\n  pop\n    /* \"Remix01-SimpleStorage/10-basics-variables-functions.sol\":1207:1231  bytes32 favBytes = \"Cat\" */\n  sstore(0x05, 0x4361740000000000000000000000000000000000000000000000000000000000)\n    /* \"Remix01-SimpleStorage/10-basics-variables-functions.sol\":324:3432  contract SimpleStorage {... */\n  callvalue\n  dup1\n  iszero\n  tag_3\n  jumpi\n  0x00\n  dup1\n  revert\ntag_3:\n  pop\n  jump(tag_4)\ntag_2:\n  dup3\n  dup1\n  sload\n  0x01\n  dup2\n  0x01\n  and\n  iszero\n  0x0100\n  mul\n  sub\n  and\n  0x02\n  swap1\n  div\n  swap1\n  0x00\n  mstore\n  keccak256(0x00, 0x20)\n  swap1\n  0x1f\n  add\n  0x20\n  swap1\n  div\n  dup2\n  add\n  swap3\n  dup3\n  0x1f\n  lt\n  tag_6\n  jumpi\n  dup1\n  mload\n  not(0xff)\n  and\n  dup4\n  dup1\n  add\n  or\n  dup6\n  sstore\n  jump(tag_5)\ntag_6:\n  dup3\n  dup1\n  add\n  0x01\n  add\n  dup6\n  sstore\n  dup3\n  iszero\n  tag_5\n  jumpi\n  swap2\n  dup3\n  add\ntag_7:\n  dup3\n  dup2\n  gt\n  iszero\n  tag_8\n  jumpi\n  dup3\n  mload\n  dup3\n  sstore\n  swap2\n  0x20\n  add\n  swap2\n  swap1\n  0x01\n  add\n  swap1\n  jump(tag_7)\ntag_8:\ntag_5:\n  pop\n  swap1\n  pop\n  tag_9\n  swap2\n  swap1\n  tag_10\n  jump\t// in\ntag_9:\n  pop\n  swap1\n  jump\t// out\ntag_10:\ntag_11:\n  dup1\n  dup3\n  gt\n  iszero\n  tag_12\n  jumpi\n  0x00\n  dup2\n  0x00\n  swap1\n  sstore\n  pop\n  0x01\n  add\n  jump(tag_11)\ntag_12:\n  pop\n  swap1\n  jump\t// out\ntag_4:\n  dataSize(sub_0)\n  dup1\n  dataOffset(sub_0)\n  0x00\n  codecopy\n  0x00\n  return\nstop\n\nsub_0: assembly {\n        /* \"Remix01-SimpleStorage/10-basics-variables-functions.sol\":324:3432  contract SimpleStorage {... */\n      mstore(0x40, 0x80)\n      callvalue\n      dup1\n      iszero\n      tag_1\n      jumpi\n      0x00\n      dup1\n      revert\n    tag_1:\n      pop\n      jumpi(tag_2, lt(calldatasize, 0x04))\n      shr(0xe0, calldataload(0x00))\n      dup1\n      0x2e64cec1\n      eq\n      tag_3\n      jumpi\n      dup1\n      0x6057361d\n      eq\n      tag_4\n      jumpi\n      dup1\n      0x8d444fdc\n      eq\n      tag_5\n      jumpi\n      dup1\n      0xe4ada89c\n      eq\n      tag_6\n      jumpi\n    tag_2:\n      0x00\n      dup1\n      revert\n        /* \"Remix01-SimpleStorage/10-basics-variables-functions.sol\":3240:3327  function retrieve() public view returns(uint256) {... */\n    tag_3:\n      tag_7\n      tag_8\n      jump\t// in\n    tag_7:\n      mload(0x40)\n      dup1\n      dup3\n      dup2\n      mstore\n      0x20\n      add\n      swap2\n      pop\n      pop\n      mload(0x40)\n      dup1\n      swap2\n      sub\n      swap1\n      return\n        /* \"Remix01-SimpleStorage/10-basics-variables-functions.sol\":2421:2576  function store(uint256 _favNum) public {... */\n    tag_4:\n      tag_9\n      0x04\n      dup1\n      calldatasize\n      sub\n      0x20\n      dup2\n      lt\n      iszero\n      tag_10\n      jumpi\n      0x00\n      dup1\n      revert\n    tag_10:\n      dup2\n      add\n      swap1\n      dup1\n      dup1\n      calldataload\n      swap1\n      0x20\n      add\n      swap1\n      swap3\n      swap2\n      swap1\n      pop\n      pop\n      pop\n      tag_11\n      jump\t// in\n    tag_9:\n      stop\n        /* \"Remix01-SimpleStorage/10-basics-variables-functions.sol\":777:810  uint256 public favUnsignedNum = 5 */\n    tag_5:\n      tag_12\n      tag_13\n      jump\t// in\n    tag_12:\n      mload(0x40)\n      dup1\n      dup3\n      dup2\n      mstore\n      0x20\n      add\n      swap2\n      pop\n      pop\n      mload(0x40)\n      dup1\n      swap2\n      sub\n      swap1\n      return\n        /* \"Remix01-SimpleStorage/10-basics-variables-functions.sol\":3333:3429  function addNum(uint256 a, uint256 b) public pure returns(uint256) {... */\n    tag_6:\n      tag_14\n      0x04\n      dup1\n      calldatasize\n      sub\n      0x40\n      dup2\n      lt\n      iszero\n      tag_15\n      jumpi\n      0x00\n      dup1\n      revert\n    tag_15:\n      dup2\n      add\n      swap1\n      dup1\n      dup1\n      calldataload\n      swap1\n      0x20\n      add\n      swap1\n      swap3\n      swap2\n      swap1\n      dup1\n      calldataload\n      swap1\n      0x20\n      add\n      swap1\n      swap3\n      swap2\n      swap1\n      pop\n      pop\n      pop\n      tag_16\n      jump\t// in\n    tag_14:\n      mload(0x40)\n      dup1\n      dup3\n      dup2\n      mstore\n      0x20\n      add\n      swap2\n      pop\n      pop\n      mload(0x40)\n      dup1\n      swap2\n      sub\n      swap1\n      return\n        /* \"Remix01-SimpleStorage/10-basics-variables-functions.sol\":3240:3327  function retrieve() public view returns(uint256) {... */\n    tag_8:\n        /* \"Remix01-SimpleStorage/10-basics-variables-functions.sol\":3280:3287  uint256 */\n      0x00\n        /* \"Remix01-SimpleStorage/10-basics-variables-functions.sol\":3306:3320  favUnsignedNum */\n      dup1\n      sload\n        /* \"Remix01-SimpleStorage/10-basics-variables-functions.sol\":3299:3320  return favUnsignedNum */\n      swap1\n      pop\n        /* \"Remix01-SimpleStorage/10-basics-variables-functions.sol\":3240:3327  function retrieve() public view returns(uint256) {... */\n      swap1\n      jump\t// out\n        /* \"Remix01-SimpleStorage/10-basics-variables-functions.sol\":2421:2576  function store(uint256 _favNum) public {... */\n    tag_11:\n        /* \"Remix01-SimpleStorage/10-basics-variables-functions.sol\":2562:2569  _favNum */\n      dup1\n        /* \"Remix01-SimpleStorage/10-basics-variables-functions.sol\":2545:2559  favUnsignedNum */\n      0x00\n        /* \"Remix01-SimpleStorage/10-basics-variables-functions.sol\":2545:2569  favUnsignedNum = _favNum */\n      dup2\n      swap1\n      sstore\n      pop\n        /* \"Remix01-SimpleStorage/10-basics-variables-functions.sol\":2421:2576  function store(uint256 _favNum) public {... */\n      pop\n      jump\t// out\n        /* \"Remix01-SimpleStorage/10-basics-variables-functions.sol\":777:810  uint256 public favUnsignedNum = 5 */\n    tag_13:\n      sload(0x00)\n      dup2\n      jump\t// out\n        /* \"Remix01-SimpleStorage/10-basics-variables-functions.sol\":3333:3429  function addNum(uint256 a, uint256 b) public pure returns(uint256) {... */\n    tag_16:\n        /* \"Remix01-SimpleStorage/10-basics-variables-functions.sol\":3391:3398  uint256 */\n      0x00\n        /* \"Remix01-SimpleStorage/10-basics-variables-functions.sol\":3421:3422  b */\n      dup2\n        /* \"Remix01-SimpleStorage/10-basics-variables-functions.sol\":3417:3418  a */\n      dup4\n        /* \"Remix01-SimpleStorage/10-basics-variables-functions.sol\":3417:3422  a + b */\n      add\n        /* \"Remix01-SimpleStorage/10-basics-variables-functions.sol\":3410:3422  return a + b */\n      swap1\n      pop\n        /* \"Remix01-SimpleStorage/10-basics-variables-functions.sol\":3333:3429  function addNum(uint256 a, uint256 b) public pure returns(uint256) {... */\n      swap3\n      swap2\n      pop\n      pop\n      jump\t// out\n\n    auxdata: 0xa26469706673582212204cd4880eb9252ec71eafc31285d81f1c1fe6f8fe5d0b9ce263f100a2de9786ca64736f6c634300060c0033\n}\n",
				"bytecode": {
					"linkReferences": {},
					"object": "608060405260056000557ffffffffffffffffffffffffffffffffffffffffffffffffffffffffffffffffb6001556001600260006101000a81548160ff0219169083151502179055506040518060400160405280600281526020017f48690000000000000000000000000000000000000000000000000000000000008152506003908051906020019061009392919061011f565b507387e7899ce00c6316e2355bb59eaf1ad358de95c3600460006101000a81548173ffffffffffffffffffffffffffffffffffffffff021916908373ffffffffffffffffffffffffffffffffffffffff1602179055507f436174000000000000000000000000000000000000000000000000000000000060055534801561011957600080fd5b506101bc565b828054600181600116156101000203166002900490600052602060002090601f016020900481019282601f1061016057805160ff191683800117855561018e565b8280016001018555821561018e579182015b8281111561018d578251825591602001919060010190610172565b5b50905061019b919061019f565b5090565b5b808211156101b85760008160009055506001016101a0565b5090565b610163806101cb6000396000f3fe608060405234801561001057600080fd5b506004361061004c5760003560e01c80632e64cec1146100515780636057361d1461006f5780638d444fdc1461009d578063e4ada89c146100bb575b600080fd5b610059610107565b6040518082815260200191505060405180910390f35b61009b6004803603602081101561008557600080fd5b8101908080359060200190929190505050610110565b005b6100a561011a565b6040518082815260200191505060405180910390f35b6100f1600480360360408110156100d157600080fd5b810190808035906020019092919080359060200190929190505050610120565b6040518082815260200191505060405180910390f35b60008054905090565b8060008190555050565b60005481565b600081830190509291505056fea26469706673582212204cd4880eb9252ec71eafc31285d81f1c1fe6f8fe5d0b9ce263f100a2de9786ca64736f6c634300060c0033",
					"opcodes": "PUSH1 0x80 PUSH1 0x40 MSTORE PUSH1 0x5 PUSH1 0x0 SSTORE PUSH32 0xFFFFFFFFFFFFFFFFFFFFFFFFFFFFFFFFFFFFFFFFFFFFFFFFFFFFFFFFFFFFFFFB PUSH1 0x1 SSTORE PUSH1 0x1 PUSH1 0x2 PUSH1 0x0 PUSH2 0x100 EXP DUP2 SLOAD DUP2 PUSH1 0xFF MUL NOT AND SWAP1 DUP4 ISZERO ISZERO MUL OR SWAP1 SSTORE POP PUSH1 0x40 MLOAD DUP1 PUSH1 0x40 ADD PUSH1 0x40 MSTORE DUP1 PUSH1 0x2 DUP2 MSTORE PUSH1 0x20 ADD PUSH32 0x4869000000000000000000000000000000000000000000000000000000000000 DUP2 MSTORE POP PUSH1 0x3 SWAP1 DUP1 MLOAD SWAP1 PUSH1 0x20 ADD SWAP1 PUSH2 0x93 SWAP3 SWAP2 SWAP1 PUSH2 0x11F JUMP JUMPDEST POP PUSH20 0x87E7899CE00C6316E2355BB59EAF1AD358DE95C3 PUSH1 0x4 PUSH1 0x0 PUSH2 0x100 EXP DUP2 SLOAD DUP2 PUSH20 0xFFFFFFFFFFFFFFFFFFFFFFFFFFFFFFFFFFFFFFFF MUL NOT AND SWAP1 DUP4 PUSH20 0xFFFFFFFFFFFFFFFFFFFFFFFFFFFFFFFFFFFFFFFF AND MUL OR SWAP1 SSTORE POP PUSH32 0x4361740000000000000000000000000000000000000000000000000000000000 PUSH1 0x5 SSTORE CALLVALUE DUP1 ISZERO PUSH2 0x119 JUMPI PUSH1 0x0 DUP1 REVERT JUMPDEST POP PUSH2 0x1BC JUMP JUMPDEST DUP3 DUP1 SLOAD PUSH1 0x1 DUP2 PUSH1 0x1 AND ISZERO PUSH2 0x100 MUL SUB AND PUSH1 0x2 SWAP1 DIV SWAP1 PUSH1 0x0 MSTORE PUSH1 0x20 PUSH1 0x0 KECCAK256 SWAP1 PUSH1 0x1F ADD PUSH1 0x20 SWAP1 DIV DUP2 ADD SWAP3 DUP3 PUSH1 0x1F LT PUSH2 0x160 JUMPI DUP1 MLOAD PUSH1 0xFF NOT AND DUP4 DUP1 ADD OR DUP6 SSTORE PUSH2 0x18E JUMP JUMPDEST DUP3 DUP1 ADD PUSH1 0x1 ADD DUP6 SSTORE DUP3 ISZERO PUSH2 0x18E JUMPI SWAP2 DUP3 ADD JUMPDEST DUP3 DUP2 GT ISZERO PUSH2 0x18D JUMPI DUP3 MLOAD DUP3 SSTORE SWAP2 PUSH1 0x20 ADD SWAP2 SWAP1 PUSH1 0x1 ADD SWAP1 PUSH2 0x172 JUMP JUMPDEST JUMPDEST POP SWAP1 POP PUSH2 0x19B SWAP2 SWAP1 PUSH2 0x19F JUMP JUMPDEST POP SWAP1 JUMP JUMPDEST JUMPDEST DUP1 DUP3 GT ISZERO PUSH2 0x1B8 JUMPI PUSH1 0x0 DUP2 PUSH1 0x0 SWAP1 SSTORE POP PUSH1 0x1 ADD PUSH2 0x1A0 JUMP JUMPDEST POP SWAP1 JUMP JUMPDEST PUSH2 0x163 DUP1 PUSH2 0x1CB PUSH1 0x0 CODECOPY PUSH1 0x0 RETURN INVALID PUSH1 0x80 PUSH1 0x40 MSTORE CALLVALUE DUP1 ISZERO PUSH2 0x10 JUMPI PUSH1 0x0 DUP1 REVERT JUMPDEST POP PUSH1 0x4 CALLDATASIZE LT PUSH2 0x4C JUMPI PUSH1 0x0 CALLDATALOAD PUSH1 0xE0 SHR DUP1 PUSH4 0x2E64CEC1 EQ PUSH2 0x51 JUMPI DUP1 PUSH4 0x6057361D EQ PUSH2 0x6F JUMPI DUP1 PUSH4 0x8D444FDC EQ PUSH2 0x9D JUMPI DUP1 PUSH4 0xE4ADA89C EQ PUSH2 0xBB JUMPI JUMPDEST PUSH1 0x0 DUP1 REVERT JUMPDEST PUSH2 0x59 PUSH2 0x107 JUMP JUMPDEST PUSH1 0x40 MLOAD DUP1 DUP3 DUP2 MSTORE PUSH1 0x20 ADD SWAP2 POP POP PUSH1 0x40 MLOAD DUP1 SWAP2 SUB SWAP1 RETURN JUMPDEST PUSH2 0x9B PUSH1 0x4 DUP1 CALLDATASIZE SUB PUSH1 0x20 DUP2 LT ISZERO PUSH2 0x85 JUMPI PUSH1 0x0 DUP1 REVERT JUMPDEST DUP2 ADD SWAP1 DUP1 DUP1 CALLDATALOAD SWAP1 PUSH1 0x20 ADD SWAP1 SWAP3 SWAP2 SWAP1 POP POP POP PUSH2 0x110 JUMP JUMPDEST STOP JUMPDEST PUSH2 0xA5 PUSH2 0x11A JUMP JUMPDEST PUSH1 0x40 MLOAD DUP1 DUP3 DUP2 MSTORE PUSH1 0x20 ADD SWAP2 POP POP PUSH1 0x40 MLOAD DUP1 SWAP2 SUB SWAP1 RETURN JUMPDEST PUSH2 0xF1 PUSH1 0x4 DUP1 CALLDATASIZE SUB PUSH1 0x40 DUP2 LT ISZERO PUSH2 0xD1 JUMPI PUSH1 0x0 DUP1 REVERT JUMPDEST DUP2 ADD SWAP1 DUP1 DUP1 CALLDATALOAD SWAP1 PUSH1 0x20 ADD SWAP1 SWAP3 SWAP2 SWAP1 DUP1 CALLDATALOAD SWAP1 PUSH1 0x20 ADD SWAP1 SWAP3 SWAP2 SWAP1 POP POP POP PUSH2 0x120 JUMP JUMPDEST PUSH1 0x40 MLOAD DUP1 DUP3 DUP2 MSTORE PUSH1 0x20 ADD SWAP2 POP POP PUSH1 0x40 MLOAD DUP1 SWAP2 SUB SWAP1 RETURN JUMPDEST PUSH1 0x0 DUP1 SLOAD SWAP1 POP SWAP1 JUMP JUMPDEST DUP1 PUSH1 0x0 DUP2 SWAP1 SSTORE POP POP JUMP JUMPDEST PUSH1 0x0 SLOAD DUP2 JUMP JUMPDEST PUSH1 0x0 DUP2 DUP4 ADD SWAP1 POP SWAP3 SWAP2 POP POP JUMP INVALID LOG2 PUSH5 0x6970667358 0x22 SLT KECCAK256 0x4C 0xD4 DUP9 0xE 0xB9 0x25 0x2E 0xC7 0x1E 0xAF 0xC3 SLT DUP6 0xD8 0x1F SHR 0x1F 0xE6 0xF8 INVALID 0x5D SIGNEXTEND SWAP13 0xE2 PUSH4 0xF100A2DE SWAP8 DUP7 0xCA PUSH5 0x736F6C6343 STOP MOD 0xC STOP CALLER "
				},
				"gasEstimates": {
					"creation": {
						"codeDepositCost": "71000",
						"executionCost": "infinite",
						"totalCost": "infinite"
					},
					"external": {
						"addNum(uint256,uint256)": "379",
						"favUnsignedNum()": "1027",
						"retrieve()": "991",
						"store(uint256)": "20242"
					}
				},
				"methodIdentifiers": {
					"addNum(uint256,uint256)": "e4ada89c",
					"favUnsignedNum()": "8d444fdc",
					"retrieve()": "2e64cec1",
					"store(uint256)": "6057361d"
				}
			},
			"userdoc": {
				"kind": "user",
				"methods": {},
				"version": 1
			}
		}
	}
}